{
  "_format": "hh-sol-artifact-1",
  "contractName": "Voting",
  "sourceName": "contracts/Voting.sol",
  "abi": [
    {
      "inputs": [],
      "stateMutability": "nonpayable",
      "type": "constructor"
    },
    {
      "anonymous": false,
      "inputs": [
        {
          "indexed": false,
          "internalType": "uint256",
          "name": "id",
          "type": "uint256"
        },
        {
          "indexed": false,
          "internalType": "string",
          "name": "name",
          "type": "string"
        },
        {
          "indexed": false,
          "internalType": "uint256",
          "name": "positionId",
          "type": "uint256"
        }
      ],
      "name": "CandidateAdded",
      "type": "event"
    },
    {
      "anonymous": false,
      "inputs": [
        {
          "indexed": false,
          "internalType": "uint256",
          "name": "id",
          "type": "uint256"
        },
        {
          "indexed": false,
          "internalType": "string",
          "name": "name",
          "type": "string"
        }
      ],
      "name": "PositionAdded",
      "type": "event"
    },
    {
      "anonymous": false,
      "inputs": [
        {
          "indexed": false,
          "internalType": "address",
          "name": "voter",
          "type": "address"
        },
        {
          "indexed": false,
          "internalType": "uint256",
          "name": "candidateId",
          "type": "uint256"
        },
        {
          "indexed": false,
          "internalType": "uint256",
          "name": "positionId",
          "type": "uint256"
        }
      ],
      "name": "VoteCasted",
      "type": "event"
    },
    {
      "inputs": [
        {
          "internalType": "uint256",
          "name": "_positionId",
          "type": "uint256"
        }
      ],
      "name": "activatePosition",
      "outputs": [],
      "stateMutability": "nonpayable",
      "type": "function"
    },
    {
      "inputs": [
        {
          "internalType": "string",
          "name": "_name",
          "type": "string"
        },
        {
          "internalType": "uint256",
          "name": "_positionId",
          "type": "uint256"
        }
      ],
      "name": "addCandidate",
      "outputs": [],
      "stateMutability": "nonpayable",
      "type": "function"
    },
    {
      "inputs": [
        {
          "internalType": "string",
          "name": "_name",
          "type": "string"
        }
      ],
      "name": "addPosition",
      "outputs": [],
      "stateMutability": "nonpayable",
      "type": "function"
    },
    {
      "inputs": [],
      "name": "candidateCount",
      "outputs": [
        {
          "internalType": "uint256",
          "name": "",
          "type": "uint256"
        }
      ],
      "stateMutability": "view",
      "type": "function"
    },
    {
      "inputs": [
        {
          "internalType": "uint256",
          "name": "",
          "type": "uint256"
        }
      ],
      "name": "candidates",
      "outputs": [
        {
          "internalType": "uint256",
          "name": "id",
          "type": "uint256"
        },
        {
          "internalType": "string",
          "name": "name",
          "type": "string"
        },
        {
          "internalType": "uint256",
          "name": "positionId",
          "type": "uint256"
        },
        {
          "internalType": "uint256",
          "name": "voteCount",
          "type": "uint256"
        }
      ],
      "stateMutability": "view",
      "type": "function"
    },
    {
      "inputs": [
        {
          "internalType": "uint256",
          "name": "_positionId",
          "type": "uint256"
        }
      ],
      "name": "deactivatePosition",
      "outputs": [],
      "stateMutability": "nonpayable",
      "type": "function"
    },
    {
      "inputs": [],
      "name": "getCandidateCount",
      "outputs": [
        {
          "internalType": "uint256",
          "name": "",
          "type": "uint256"
        }
      ],
      "stateMutability": "view",
      "type": "function"
    },
    {
      "inputs": [
        {
          "internalType": "uint256",
          "name": "_candidateId",
          "type": "uint256"
        }
      ],
      "name": "getCandidateVotes",
      "outputs": [
        {
          "internalType": "uint256",
          "name": "",
          "type": "uint256"
        }
      ],
      "stateMutability": "view",
      "type": "function"
    },
    {
      "inputs": [
        {
          "internalType": "address",
          "name": "_voter",
          "type": "address"
        },
        {
          "internalType": "uint256",
          "name": "_positionId",
          "type": "uint256"
        }
      ],
      "name": "hasVotedForPosition",
      "outputs": [
        {
          "internalType": "bool",
          "name": "",
          "type": "bool"
        }
      ],
      "stateMutability": "view",
      "type": "function"
    },
    {
      "inputs": [],
      "name": "owner",
      "outputs": [
        {
          "internalType": "address",
          "name": "",
          "type": "address"
        }
      ],
      "stateMutability": "view",
      "type": "function"
    },
    {
      "inputs": [],
      "name": "positionCount",
      "outputs": [
        {
          "internalType": "uint256",
          "name": "",
          "type": "uint256"
        }
      ],
      "stateMutability": "view",
      "type": "function"
    },
    {
      "inputs": [
        {
          "internalType": "uint256",
          "name": "",
          "type": "uint256"
        }
      ],
      "name": "positions",
      "outputs": [
        {
          "internalType": "uint256",
          "name": "id",
          "type": "uint256"
        },
        {
          "internalType": "string",
          "name": "name",
          "type": "string"
        },
        {
          "internalType": "bool",
          "name": "active",
          "type": "bool"
        }
      ],
      "stateMutability": "view",
      "type": "function"
    },
    {
      "inputs": [
        {
          "internalType": "uint256",
          "name": "_candidateId",
          "type": "uint256"
        }
      ],
      "name": "vote",
      "outputs": [],
      "stateMutability": "nonpayable",
      "type": "function"
    },
    {
      "inputs": [
        {
          "internalType": "address",
          "name": "",
          "type": "address"
        }
      ],
      "name": "voters",
      "outputs": [
        {
          "internalType": "address",
          "name": "voterAddress",
          "type": "address"
        },
        {
          "internalType": "bool",
          "name": "hasVoted",
          "type": "bool"
        }
      ],
      "stateMutability": "view",
      "type": "function"
    }
  ],
  "bytecode": "0x608060405234801561001057600080fd5b5033600260006101000a81548173ffffffffffffffffffffffffffffffffffffffff021916908373ffffffffffffffffffffffffffffffffffffffff1602179055506000808190555060006001819055506119d4806100706000396000f3fe608060405234801561001057600080fd5b50600436106100ea5760003560e01c806399fbab881161008c578063a9a981a311610066578063a9a981a314610275578063e23cec7b14610293578063e7702d05146102af578063fb9b4cba146102cd576100ea565b806399fbab88146101e25780639d261a7814610214578063a3ec138d14610244576100ea565b80633477ee2e116100c85780633477ee2e14610145578063866163c0146101785780638947b180146101a85780638da5cb5b146101c4576100ea565b80630121b93f146100ef5780631f57ec951461010b57806330a5634714610127575b600080fd5b61010960048036038101906101049190610e94565b6102e9565b005b61012560048036038101906101209190610e94565b61052e565b005b61012f610641565b60405161013c9190610ed0565b60405180910390f35b61015f600480360381019061015a9190610e94565b61064b565b60405161016f9493929190610f7b565b60405180910390f35b610192600480360381019061018d9190610e94565b610703565b60405161019f9190610ed0565b60405180910390f35b6101c260048036038101906101bd9190610e94565b610773565b005b6101cc610886565b6040516101d99190611008565b60405180910390f35b6101fc60048036038101906101f79190610e94565b6108ac565b60405161020b9392919061103e565b60405180910390f35b61022e600480360381019061022991906110a8565b61096b565b60405161023b91906110e8565b60405180910390f35b61025e60048036038101906102599190611103565b610a84565b60405161026c929190611130565b60405180910390f35b61027d610ad5565b60405161028a9190610ed0565b60405180910390f35b6102ad60048036038101906102a8919061128e565b610adb565b005b6102b7610ce8565b6040516102c49190610ed0565b60405180910390f35b6102e760048036038101906102e291906112ea565b610cee565b005b6000811180156102fb57506001548111155b61033a576040517f08c379a00000000000000000000000000000000000000000000000000000000081526004016103319061137f565b60405180910390fd5b6000600460008381526020019081526020016000206002015490506000600560003373ffffffffffffffffffffffffffffffffffffffff1673ffffffffffffffffffffffffffffffffffffffff168152602001908152602001600020905060005b816001018054905081101561041f57828260010182815481106103c1576103c061139f565b5b90600052602060002001540361040c576040517f08c379a00000000000000000000000000000000000000000000000000000000081526004016104039061141a565b60405180910390fd5b808061041790611469565b91505061039b565b5060046000848152602001908152602001600020600301600081548092919061044790611469565b91905055508060000160149054906101000a900460ff166104c357338160000160006101000a81548173ffffffffffffffffffffffffffffffffffffffff021916908373ffffffffffffffffffffffffffffffffffffffff16021790555060018160000160146101000a81548160ff0219169083151502179055505b806001018290806001815401808255809150506001900390600052602060002001600090919091909150557fcb87df07b1c304492bd875a5c8b98672eca500939412809ea229afef1d745188338484604051610521939291906114b1565b60405180910390a1505050565b600260009054906101000a900473ffffffffffffffffffffffffffffffffffffffff1673ffffffffffffffffffffffffffffffffffffffff163373ffffffffffffffffffffffffffffffffffffffff16146105be576040517f08c379a00000000000000000000000000000000000000000000000000000000081526004016105b59061155a565b60405180910390fd5b6000811180156105d057506000548111155b61060f576040517f08c379a0000000000000000000000000000000000000000000000000000000008152600401610606906115c6565b60405180910390fd5b60006003600083815260200190815260200160002060020160006101000a81548160ff02191690831515021790555050565b6000600154905090565b600460205280600052604060002060009150905080600001549080600101805461067490611615565b80601f01602080910402602001604051908101604052809291908181526020018280546106a090611615565b80156106ed5780601f106106c2576101008083540402835291602001916106ed565b820191906000526020600020905b8154815290600101906020018083116106d057829003601f168201915b5050505050908060020154908060030154905084565b6000808211801561071657506001548211155b610755576040517f08c379a000000000000000000000000000000000000000000000000000000000815260040161074c9061137f565b60405180910390fd5b60046000838152602001908152602001600020600301549050919050565b600260009054906101000a900473ffffffffffffffffffffffffffffffffffffffff1673ffffffffffffffffffffffffffffffffffffffff163373ffffffffffffffffffffffffffffffffffffffff1614610803576040517f08c379a00000000000000000000000000000000000000000000000000000000081526004016107fa9061155a565b60405180910390fd5b60008111801561081557506000548111155b610854576040517f08c379a000000000000000000000000000000000000000000000000000000000815260040161084b906115c6565b60405180910390fd5b60016003600083815260200190815260200160002060020160006101000a81548160ff02191690831515021790555050565b600260009054906101000a900473ffffffffffffffffffffffffffffffffffffffff1681565b60036020528060005260406000206000915090508060000154908060010180546108d590611615565b80601f016020809104026020016040519081016040528092919081815260200182805461090190611615565b801561094e5780601f106109235761010080835404028352916020019161094e565b820191906000526020600020905b81548152906001019060200180831161093157829003601f168201915b5050505050908060020160009054906101000a900460ff16905083565b6000808211801561097e57506000548211155b6109bd576040517f08c379a00000000000000000000000000000000000000000000000000000000081526004016109b4906115c6565b60405180910390fd5b6000600560008573ffffffffffffffffffffffffffffffffffffffff1673ffffffffffffffffffffffffffffffffffffffff16815260200190815260200160002090508060000160149054906101000a900460ff16610a20576000915050610a7e565b60005b8160010180549050811015610a775783826001018281548110610a4957610a4861139f565b5b906000526020600020015403610a6457600192505050610a7e565b8080610a6f90611469565b915050610a23565b5060009150505b92915050565b60056020528060005260406000206000915090508060000160009054906101000a900473ffffffffffffffffffffffffffffffffffffffff16908060000160149054906101000a900460ff16905082565b60015481565b600260009054906101000a900473ffffffffffffffffffffffffffffffffffffffff1673ffffffffffffffffffffffffffffffffffffffff163373ffffffffffffffffffffffffffffffffffffffff1614610b6b576040517f08c379a0000000000000000000000000000000000000000000000000000000008152600401610b629061155a565b60405180910390fd5b600081118015610b7d57506000548111155b610bbc576040517f08c379a0000000000000000000000000000000000000000000000000000000008152600401610bb3906115c6565b60405180910390fd5b6003600082815260200190815260200160002060020160009054906101000a900460ff16610c1f576040517f08c379a0000000000000000000000000000000000000000000000000000000008152600401610c1690611692565b60405180910390fd5b60016000815480929190610c3290611469565b9190505550604051806080016040528060015481526020018381526020018281526020016000815250600460006001548152602001908152602001600020600082015181600001556020820151816001019081610c8f919061185e565b5060408201518160020155606082015181600301559050507fc0a81c9aad7f882e7dd72db314924227026255cc5ad0164435df572dec8c804d6001548383604051610cdc93929190611930565b60405180910390a15050565b60005481565b600260009054906101000a900473ffffffffffffffffffffffffffffffffffffffff1673ffffffffffffffffffffffffffffffffffffffff163373ffffffffffffffffffffffffffffffffffffffff1614610d7e576040517f08c379a0000000000000000000000000000000000000000000000000000000008152600401610d759061155a565b60405180910390fd5b600080815480929190610d9090611469565b919050555060405180606001604052806000548152602001828152602001600115158152506003600080548152602001908152602001600020600082015181600001556020820151816001019081610de8919061185e565b5060408201518160020160006101000a81548160ff0219169083151502179055509050507f936c61804de9fb725572fcb85669c297d85ea46fe333de2933c1b3c6aef2484860005482604051610e3f92919061196e565b60405180910390a150565b6000604051905090565b600080fd5b600080fd5b6000819050919050565b610e7181610e5e565b8114610e7c57600080fd5b50565b600081359050610e8e81610e68565b92915050565b600060208284031215610eaa57610ea9610e54565b5b6000610eb884828501610e7f565b91505092915050565b610eca81610e5e565b82525050565b6000602082019050610ee56000830184610ec1565b92915050565b600081519050919050565b600082825260208201905092915050565b60005b83811015610f25578082015181840152602081019050610f0a565b60008484015250505050565b6000601f19601f8301169050919050565b6000610f4d82610eeb565b610f578185610ef6565b9350610f67818560208601610f07565b610f7081610f31565b840191505092915050565b6000608082019050610f906000830187610ec1565b8181036020830152610fa28186610f42565b9050610fb16040830185610ec1565b610fbe6060830184610ec1565b95945050505050565b600073ffffffffffffffffffffffffffffffffffffffff82169050919050565b6000610ff282610fc7565b9050919050565b61100281610fe7565b82525050565b600060208201905061101d6000830184610ff9565b92915050565b60008115159050919050565b61103881611023565b82525050565b60006060820190506110536000830186610ec1565b81810360208301526110658185610f42565b9050611074604083018461102f565b949350505050565b61108581610fe7565b811461109057600080fd5b50565b6000813590506110a28161107c565b92915050565b600080604083850312156110bf576110be610e54565b5b60006110cd85828601611093565b92505060206110de85828601610e7f565b9150509250929050565b60006020820190506110fd600083018461102f565b92915050565b60006020828403121561111957611118610e54565b5b600061112784828501611093565b91505092915050565b60006040820190506111456000830185610ff9565b611152602083018461102f565b9392505050565b600080fd5b600080fd5b7f4e487b7100000000000000000000000000000000000000000000000000000000600052604160045260246000fd5b61119b82610f31565b810181811067ffffffffffffffff821117156111ba576111b9611163565b5b80604052505050565b60006111cd610e4a565b90506111d98282611192565b919050565b600067ffffffffffffffff8211156111f9576111f8611163565b5b61120282610f31565b9050602081019050919050565b82818337600083830152505050565b600061123161122c846111de565b6111c3565b90508281526020810184848401111561124d5761124c61115e565b5b61125884828561120f565b509392505050565b600082601f83011261127557611274611159565b5b813561128584826020860161121e565b91505092915050565b600080604083850312156112a5576112a4610e54565b5b600083013567ffffffffffffffff8111156112c3576112c2610e59565b5b6112cf85828601611260565b92505060206112e085828601610e7f565b9150509250929050565b600060208284031215611300576112ff610e54565b5b600082013567ffffffffffffffff81111561131e5761131d610e59565b5b61132a84828501611260565b91505092915050565b7f496e76616c69642063616e646964617465204944000000000000000000000000600082015250565b6000611369601483610ef6565b915061137482611333565b602082019050919050565b600060208201905081810360008301526113988161135c565b9050919050565b7f4e487b7100000000000000000000000000000000000000000000000000000000600052603260045260246000fd5b7f416c726561647920766f74656420666f72207468697320706f736974696f6e00600082015250565b6000611404601f83610ef6565b915061140f826113ce565b602082019050919050565b60006020820190508181036000830152611433816113f7565b9050919050565b7f4e487b7100000000000000000000000000000000000000000000000000000000600052601160045260246000fd5b600061147482610e5e565b91507fffffffffffffffffffffffffffffffffffffffffffffffffffffffffffffffff82036114a6576114a561143a565b5b600182019050919050565b60006060820190506114c66000830186610ff9565b6114d36020830185610ec1565b6114e06040830184610ec1565b949350505050565b7f4f6e6c79206f776e65722063616e20706572666f726d2074686973206163746960008201527f6f6e000000000000000000000000000000000000000000000000000000000000602082015250565b6000611544602283610ef6565b915061154f826114e8565b604082019050919050565b6000602082019050818103600083015261157381611537565b9050919050565b7f496e76616c696420706f736974696f6e20494400000000000000000000000000600082015250565b60006115b0601383610ef6565b91506115bb8261157a565b602082019050919050565b600060208201905081810360008301526115df816115a3565b9050919050565b7f4e487b7100000000000000000000000000000000000000000000000000000000600052602260045260246000fd5b6000600282049050600182168061162d57607f821691505b6020821081036116405761163f6115e6565b5b50919050565b7f506f736974696f6e206973206e6f742061637469766500000000000000000000600082015250565b600061167c601683610ef6565b915061168782611646565b602082019050919050565b600060208201905081810360008301526116ab8161166f565b9050919050565b60008190508160005260206000209050919050565b60006020601f8301049050919050565b600082821b905092915050565b6000600883026117147fffffffffffffffffffffffffffffffffffffffffffffffffffffffffffffffff826116d7565b61171e86836116d7565b95508019841693508086168417925050509392505050565b6000819050919050565b600061175b61175661175184610e5e565b611736565b610e5e565b9050919050565b6000819050919050565b61177583611740565b61178961178182611762565b8484546116e4565b825550505050565b600090565b61179e611791565b6117a981848461176c565b505050565b5b818110156117cd576117c2600082611796565b6001810190506117af565b5050565b601f821115611812576117e3816116b2565b6117ec846116c7565b810160208510156117fb578190505b61180f611807856116c7565b8301826117ae565b50505b505050565b600082821c905092915050565b600061183560001984600802611817565b1980831691505092915050565b600061184e8383611824565b9150826002028217905092915050565b61186782610eeb565b67ffffffffffffffff8111156118805761187f611163565b5b61188a8254611615565b6118958282856117d1565b600060209050601f8311600181146118c857600084156118b6578287015190505b6118c08582611842565b865550611928565b601f1984166118d6866116b2565b60005b828110156118fe578489015182556001820191506020850194506020810190506118d9565b8683101561191b5784890151611917601f891682611824565b8355505b6001600288020188555050505b505050505050565b60006060820190506119456000830186610ec1565b81810360208301526119578185610f42565b90506119666040830184610ec1565b949350505050565b60006040820190506119836000830185610ec1565b81810360208301526119958184610f42565b9050939250505056fea2646970667358221220ac589c6d289df3327590918cfff3e1905a80ef21db1c7303f5bd4989268eb92164736f6c63430008130033",
  "linkReferences": {},
  "deployedLinkReferences": {}
}