{
  "_format": "hh-sol-artifact-1",
  "contractName": "Voting",
  "sourceName": "contracts/Voting.sol",
  "abi": [
    {
      "inputs": [],
      "stateMutability": "nonpayable",
      "type": "constructor"
    },
    {
      "anonymous": false,
      "inputs": [
        {
          "indexed": true,
          "internalType": "uint256",
          "name": "candidateId",
          "type": "uint256"
        },
        {
          "indexed": false,
          "internalType": "uint256",
          "name": "newVoteCount",
          "type": "uint256"
        }
      ],
      "name": "Voted",
      "type": "event"
    },
    {
      "inputs": [
        {
          "internalType": "string",
          "name": "name",
          "type": "string"
        }
      ],
      "name": "addCandidate",
      "outputs": [],
      "stateMutability": "nonpayable",
      "type": "function"
    },
    {
      "inputs": [
        {
          "internalType": "uint256",
          "name": "",
          "type": "uint256"
        }
      ],
      "name": "candidates",
      "outputs": [
        {
          "internalType": "uint256",
          "name": "id",
          "type": "uint256"
        },
        {
          "internalType": "string",
          "name": "name",
          "type": "string"
        },
        {
          "internalType": "uint256",
          "name": "votes",
          "type": "uint256"
        }
      ],
      "stateMutability": "view",
      "type": "function"
    },
    {
      "inputs": [],
      "name": "getAllCandidates",
      "outputs": [
        {
          "components": [
            {
              "internalType": "uint256",
              "name": "id",
              "type": "uint256"
            },
            {
              "internalType": "string",
              "name": "name",
              "type": "string"
            },
            {
              "internalType": "uint256",
              "name": "votes",
              "type": "uint256"
            }
          ],
          "internalType": "struct Voting.Candidate[]",
          "name": "",
          "type": "tuple[]"
        }
      ],
      "stateMutability": "view",
      "type": "function"
    },
    {
      "inputs": [],
      "name": "getCandidateCount",
      "outputs": [
        {
          "internalType": "uint256",
          "name": "",
          "type": "uint256"
        }
      ],
      "stateMutability": "view",
      "type": "function"
    },
    {
      "inputs": [],
      "name": "owner",
      "outputs": [
        {
          "internalType": "address",
          "name": "",
          "type": "address"
        }
      ],
      "stateMutability": "view",
      "type": "function"
    },
    {
      "inputs": [
        {
          "internalType": "uint256",
          "name": "candidateId",
          "type": "uint256"
        }
      ],
      "name": "vote",
      "outputs": [],
      "stateMutability": "nonpayable",
      "type": "function"
    }
  ],
  "bytecode": "0x60806040523480156200001157600080fd5b5033600160006101000a81548173ffffffffffffffffffffffffffffffffffffffff021916908373ffffffffffffffffffffffffffffffffffffffff16021790555060006040518060600160405280600081526020016040518060400160405280600581526020017f416c696365000000000000000000000000000000000000000000000000000000815250815260200160008152509080600181540180825580915050600190039060005260206000209060030201600090919091909150600082015181600001556020820151816001019081620000f1919062000429565b5060408201518160020155505060006040518060600160405280600181526020016040518060400160405280600381526020017f426f6200000000000000000000000000000000000000000000000000000000008152508152602001600081525090806001815401808255809150506001900390600052602060002090600302016000909190919091506000820151816000015560208201518160010190816200019c919062000429565b5060408201518160020155505062000510565b600081519050919050565b7f4e487b7100000000000000000000000000000000000000000000000000000000600052604160045260246000fd5b7f4e487b7100000000000000000000000000000000000000000000000000000000600052602260045260246000fd5b600060028204905060018216806200023157607f821691505b602082108103620002475762000246620001e9565b5b50919050565b60008190508160005260206000209050919050565b60006020601f8301049050919050565b600082821b905092915050565b600060088302620002b17fffffffffffffffffffffffffffffffffffffffffffffffffffffffffffffffff8262000272565b620002bd868362000272565b95508019841693508086168417925050509392505050565b6000819050919050565b6000819050919050565b60006200030a62000304620002fe84620002d5565b620002df565b620002d5565b9050919050565b6000819050919050565b6200032683620002e9565b6200033e620003358262000311565b8484546200027f565b825550505050565b600090565b6200035562000346565b620003628184846200031b565b505050565b5b818110156200038a576200037e6000826200034b565b60018101905062000368565b5050565b601f821115620003d957620003a3816200024d565b620003ae8462000262565b81016020851015620003be578190505b620003d6620003cd8562000262565b83018262000367565b50505b505050565b600082821c905092915050565b6000620003fe60001984600802620003de565b1980831691505092915050565b6000620004198383620003eb565b9150826002028217905092915050565b6200043482620001af565b67ffffffffffffffff81111562000450576200044f620001ba565b5b6200045c825462000218565b620004698282856200038e565b600060209050601f831160018114620004a157600084156200048c578287015190505b6200049885826200040b565b86555062000508565b601f198416620004b1866200024d565b60005b82811015620004db57848901518255600182019150602085019450602081019050620004b4565b86831015620004fb5784890151620004f7601f891682620003eb565b8355505b6001600288020188555050505b505050505050565b610e7980620005206000396000f3fe608060405234801561001057600080fd5b50600436106100625760003560e01c80630121b93f146100675780632e6997fe1461008357806330a56347146100a15780633477ee2e146100bf578063462e91ec146100f15780638da5cb5b1461010d575b600080fd5b610081600480360381019061007c919061055b565b61012b565b005b61008b61020d565b6040516100989190610739565b60405180910390f35b6100a9610312565b6040516100b6919061076a565b60405180910390f35b6100d960048036038101906100d4919061055b565b61031e565b6040516100e8939291906107cf565b60405180910390f35b61010b60048036038101906101069190610942565b6103e0565b005b6101156104eb565b60405161012291906109cc565b60405180910390f35b6000805490508110610172576040517f08c379a000000000000000000000000000000000000000000000000000000000815260040161016990610a33565b60405180910390fd5b6000818154811061018657610185610a53565b5b906000526020600020906003020160020160008154809291906101a890610ab1565b9190505550807f84a5508ca0d85b42a876e75a9126f3ae7b43617ce60b170bf8805d34630bc654600083815481106101e3576101e2610a53565b5b906000526020600020906003020160020154604051610202919061076a565b60405180910390a250565b60606000805480602002602001604051908101604052809291908181526020016000905b8282101561030957838290600052602060002090600302016040518060600160405290816000820154815260200160018201805461026e90610b28565b80601f016020809104026020016040519081016040528092919081815260200182805461029a90610b28565b80156102e75780601f106102bc576101008083540402835291602001916102e7565b820191906000526020600020905b8154815290600101906020018083116102ca57829003601f168201915b5050505050815260200160028201548152505081526020019060010190610231565b50505050905090565b60008080549050905090565b6000818154811061032e57600080fd5b906000526020600020906003020160009150905080600001549080600101805461035790610b28565b80601f016020809104026020016040519081016040528092919081815260200182805461038390610b28565b80156103d05780601f106103a5576101008083540402835291602001916103d0565b820191906000526020600020905b8154815290600101906020018083116103b357829003601f168201915b5050505050908060020154905083565b600160009054906101000a900473ffffffffffffffffffffffffffffffffffffffff1673ffffffffffffffffffffffffffffffffffffffff163373ffffffffffffffffffffffffffffffffffffffff1614610470576040517f08c379a000000000000000000000000000000000000000000000000000000000815260040161046790610ba5565b60405180910390fd5b600060405180606001604052806000805490508152602001838152602001600081525090806001815401808255809150506001900390600052602060002090600302016000909190919091506000820151816000015560208201518160010190816104db9190610d71565b5060408201518160020155505050565b600160009054906101000a900473ffffffffffffffffffffffffffffffffffffffff1681565b6000604051905090565b600080fd5b600080fd5b6000819050919050565b61053881610525565b811461054357600080fd5b50565b6000813590506105558161052f565b92915050565b6000602082840312156105715761057061051b565b5b600061057f84828501610546565b91505092915050565b600081519050919050565b600082825260208201905092915050565b6000819050602082019050919050565b6105bd81610525565b82525050565b600081519050919050565b600082825260208201905092915050565b60005b838110156105fd5780820151818401526020810190506105e2565b60008484015250505050565b6000601f19601f8301169050919050565b6000610625826105c3565b61062f81856105ce565b935061063f8185602086016105df565b61064881610609565b840191505092915050565b600060608301600083015161066b60008601826105b4565b5060208301518482036020860152610683828261061a565b915050604083015161069860408601826105b4565b508091505092915050565b60006106af8383610653565b905092915050565b6000602082019050919050565b60006106cf82610588565b6106d98185610593565b9350836020820285016106eb856105a4565b8060005b85811015610727578484038952815161070885826106a3565b9450610713836106b7565b925060208a019950506001810190506106ef565b50829750879550505050505092915050565b6000602082019050818103600083015261075381846106c4565b905092915050565b61076481610525565b82525050565b600060208201905061077f600083018461075b565b92915050565b600082825260208201905092915050565b60006107a1826105c3565b6107ab8185610785565b93506107bb8185602086016105df565b6107c481610609565b840191505092915050565b60006060820190506107e4600083018661075b565b81810360208301526107f68185610796565b9050610805604083018461075b565b949350505050565b600080fd5b600080fd5b7f4e487b7100000000000000000000000000000000000000000000000000000000600052604160045260246000fd5b61084f82610609565b810181811067ffffffffffffffff8211171561086e5761086d610817565b5b80604052505050565b6000610881610511565b905061088d8282610846565b919050565b600067ffffffffffffffff8211156108ad576108ac610817565b5b6108b682610609565b9050602081019050919050565b82818337600083830152505050565b60006108e56108e084610892565b610877565b90508281526020810184848401111561090157610900610812565b5b61090c8482856108c3565b509392505050565b600082601f8301126109295761092861080d565b5b81356109398482602086016108d2565b91505092915050565b6000602082840312156109585761095761051b565b5b600082013567ffffffffffffffff81111561097657610975610520565b5b61098284828501610914565b91505092915050565b600073ffffffffffffffffffffffffffffffffffffffff82169050919050565b60006109b68261098b565b9050919050565b6109c6816109ab565b82525050565b60006020820190506109e160008301846109bd565b92915050565b7f496e76616c69642063616e646964617465204944000000000000000000000000600082015250565b6000610a1d601483610785565b9150610a28826109e7565b602082019050919050565b60006020820190508181036000830152610a4c81610a10565b9050919050565b7f4e487b7100000000000000000000000000000000000000000000000000000000600052603260045260246000fd5b7f4e487b7100000000000000000000000000000000000000000000000000000000600052601160045260246000fd5b6000610abc82610525565b91507fffffffffffffffffffffffffffffffffffffffffffffffffffffffffffffffff8203610aee57610aed610a82565b5b600182019050919050565b7f4e487b7100000000000000000000000000000000000000000000000000000000600052602260045260246000fd5b60006002820490506001821680610b4057607f821691505b602082108103610b5357610b52610af9565b5b50919050565b7f4f6e6c79206f776e65722063616e206164642063616e64696461746573000000600082015250565b6000610b8f601d83610785565b9150610b9a82610b59565b602082019050919050565b60006020820190508181036000830152610bbe81610b82565b9050919050565b60008190508160005260206000209050919050565b60006020601f8301049050919050565b600082821b905092915050565b600060088302610c277fffffffffffffffffffffffffffffffffffffffffffffffffffffffffffffffff82610bea565b610c318683610bea565b95508019841693508086168417925050509392505050565b6000819050919050565b6000610c6e610c69610c6484610525565b610c49565b610525565b9050919050565b6000819050919050565b610c8883610c53565b610c9c610c9482610c75565b848454610bf7565b825550505050565b600090565b610cb1610ca4565b610cbc818484610c7f565b505050565b5b81811015610ce057610cd5600082610ca9565b600181019050610cc2565b5050565b601f821115610d2557610cf681610bc5565b610cff84610bda565b81016020851015610d0e578190505b610d22610d1a85610bda565b830182610cc1565b50505b505050565b600082821c905092915050565b6000610d4860001984600802610d2a565b1980831691505092915050565b6000610d618383610d37565b9150826002028217905092915050565b610d7a826105c3565b67ffffffffffffffff811115610d9357610d92610817565b5b610d9d8254610b28565b610da8828285610ce4565b600060209050601f831160018114610ddb5760008415610dc9578287015190505b610dd38582610d55565b865550610e3b565b601f198416610de986610bc5565b60005b82811015610e1157848901518255600182019150602085019450602081019050610dec565b86831015610e2e5784890151610e2a601f891682610d37565b8355505b6001600288020188555050505b50505050505056fea264697066735822122054bce7fac642fcec53eb972b94505285ee7311f26c55cd2b8332cc1b39665c5664736f6c63430008130033",
  "linkReferences": {},
  "deployedLinkReferences": {}
}